:100000000C9435000C945D000C945D000C945D0024
:100010000C945D000C945D000C945D000C945D00EC
:100020000C945D000C945D000C945D000C945D00DC
:100030000C945D000C945D000C945D000C945D00CC
:100040000C94F9010C945D000C9469020C94430229
:100050000C945D000C945D000C945D000C945D00AC
:100060000C945D000C945D00BD0311241FBECFEF06
:10007000D8E0DEBFCDBF21E0A2E2B1E001C01D9219
:10008000AD3CB207E1F711E0A0E0B1E0E8E4FCE04C
:1000900002C005900D92A232B107D9F710E0C5E376
:1000A000D0E004C02197FE010E942104C433D1078F
:1000B000C9F70E949B020C9422060C9400003FB7E3
:1000C000F8948091240190912501A0912601B0918E
:1000D000270126B5A89B05C02F3F19F00196A11D49
:1000E000B11D3FBFBA2FA92F982F8827BC01CD0182
:1000F000620F711D811D911D42E0660F771F881FE1
:10010000991F4A95D1F70895AF92BF92CF92DF928F
:10011000EF92FF920F931F93CF93DF936C017B01BC
:100120008B01040F151FEB015E01AE18BF08C0174D
:10013000D10759F06991D601ED91FC910190F081C0
:10014000E02DC6010995892B79F7C501DF91CF9183
:100150001F910F91FF90EF90DF90CF90BF90AF90E5
:100160000895FC01538D448D252F30E0842F90E0BD
:10017000821B930B541710F0CF96089501970895A2
:10018000FC01918D828D981761F0A28DAE0FBF2F6B
:10019000B11D5D968C91928D9F5F9F73928F90E0C1
:1001A00008958FEF9FEF08952FB7F894809128015D
:1001B00090912901A0912A01B0912B012FBF80932A
:1001C000340190933501A0933601B09337018CE24E
:1001D00091E00E94C00097FF26C02FB7F89480914D
:1001E000280190912901A0912A01B0912B012FBFE4
:1001F0004091340150913501609136017091370181
:10020000841B950BA60BB70B409130015091310127
:10021000609132017091330184179507A607B707E3
:10022000B0F28FEF9FEF0895FC01918D828D9817AA
:1002300031F0828DE80FF11D858D90E008958FEFEC
:100240009FEF0895FC01918D228D892F90E0805CB5
:100250009F4F821B91098F73992708958CE291E03B
:100260000E94220121E0892B09F420E0822F0895C9
:1002700080E090E0892B29F00E942E0181110C94DE
:1002800000000895FC01A48DA80FB92FB11DA35A39
:10029000BF4F2C91848D90E001968F739927848FA6
:1002A000A689B7892C93A089B1898C9183708064C9
:1002B0008C93938D848D981306C00288F389E02D6A
:1002C00080818F7D80830895EF92FF920F931F931B
:1002D000CF93DF93EC0181E0888F9B8D8C8D9813F9
:1002E0001AC0E889F989808185FF15C09FB7F89405
:1002F000EE89FF896083E889F98980818370806451
:1003000080839FBF81E090E0DF91CF911F910F919B
:10031000FF90EF900895F62E0B8D10E00F5F1F4FAA
:100320000F731127E02E8C8D8E110CC00FB607FCB9
:10033000FACFE889F989808185FFF5CFCE010E9447
:100340004201F1CFEB8DEC0FFD2FF11DE35AFF4F72
:10035000F0829FB7F8940B8FEA89FB8980818062D5
:10036000CFCFCF93DF93EC01888D8823B9F0AA8992
:10037000BB89E889F9898C9185FD03C0808186FD60
:100380000DC00FB607FCF7CF8C9185FFF2CF8081AF
:1003900085FFEDCFCE010E944201E9CFDF91CF91E1
:1003A00008950F931F93CF93DF93EC018881998178
:1003B000009759F02A813B812617370730F081E0FA
:1003C000DF91CF911F910F9108958B016F5F7F4F48
:1003D0000E944C05009759F0998388831B830A83F8
:1003E0002C813D81232B59F7FC011082E8CF80E05E
:1003F000E7CF1F920F920FB60F9211242F933F93C6
:100400008F939F93AF93BF9380912801909129017F
:10041000A0912A01B0912B013091230123E0230FF9
:100420002D3758F50196A11DB11D2093230180930E
:10043000280190932901A0932A01B0932B01809168
:10044000240190912501A0912601B09127010196E8
:10045000A11DB11D8093240190932501A093260135
:10046000B0932701BF91AF919F918F913F912F91B1
:100470000F900FBE0F901F90189526E8230F02963D
:10048000A11DB11DD2CF1F920F920FB60F92112452
:100490002F933F934F935F936F937F938F939F938C
:1004A000AF93BF93EF93FF938CE291E00E944201E0
:1004B000FF91EF91BF91AF919F918F917F916F913C
:1004C0005F914F913F912F910F900FBE0F901F9012
:1004D00018951F920F920FB60F9211242F938F939E
:1004E0009F93EF93FF93E0913C01F0913D01808158
:1004F000E0914201F091430182FD1BC09081809107
:1005000045018F5F8F7320914601821741F0E09182
:100510004501F0E0E45DFE4F958F80934501FF912A
:10052000EF919F918F912F910F900FBE0F901F9081
:1005300018958081F4CFCF93DF93CDB7DEB728979E
:100540000FB6F894DEBF0FBECDBF789484B582603D
:1005500084BD84B5816084BD85B5826085BD85B567
:10056000816085BD80916E00816080936E001092E5
:100570008100809181008260809381008091810060
:1005800081608093810080918000816080938000F1
:100590008091B10084608093B1008091B00081604F
:1005A0008093B00080917A00846080937A0080917B
:1005B0007A00826080937A0080917A0081608093D3
:1005C0007A0080917A00806880937A001092C1004E
:1005D000E0913C01F0913D0182E08083E09138019F
:1005E000F09139011082E0913A01F0913B018FECDA
:1005F000808310924401E0914001F091410186E036
:100600008083E0913E01F0913F0180818061808391
:10061000E0913E01F0913F01808188608083E0910C
:100620003E01F0913F01808180688083E0913E012E
:10063000F0913F0180818F7D808390E0E92E90E0F2
:10064000F92E80912201811168C044E050E068E1F8
:1006500071E08CE291E00E9484008CE291E00E94C3
:100660002201181619060CF058C01A8219821C8231
:100670001B821E821D8270E060E0CE0101960E9406
:10068000D10129813A8181112BC02115310519F041
:10069000C9010E94C3041A8219821E821D821C8213
:1006A0001B820E94D4000D811E8197FD21C08F8383
:1006B00018860F5F1F4FB801CE0101960E94D1012D
:1006C000882379F329813A818D819E81BE01695FFA
:1006D0007F4F820F931F0E941B061E830D83E1CF65
:1006E0001E821D826CE171E0C9010E941B06D9CFF8
:1006F000A980BA80012B41F06DE171E0C5010E9433
:10070000120621E0892B09F020E020932201A11498
:10071000B10419F0C5010E94C3040E945F004B019F
:100720005C0184E6482E512C612C712C0E945F00E4
:10073000681979098A099B09683E7340810591050A
:10074000A8F321E0421A51086108710888EE880E6A
:1007500083E0981EA11CB11C411451046104710472
:1007600029F7E114F10409F46CCF0E942E018823CB
:1007700009F467CF0E94000064CFECE2F1E013823D
:10078000128288EE93E0A0E0B0E084839583A68394
:10079000B7838AE091E09183808385EC90E0958730
:1007A000848784EC90E09787868780EC90E0918B3B
:1007B000808B81EC90E0938B828B82EC90E0958B28
:1007C000848B86EC90E0978B868B118E128E138E25
:1007D000148E08952F923F924F925F926F927F9264
:1007E0008F929F92AF92BF92CF92DF92EF92FF9241
:1007F0000F931F93CF93DF93CDB7DEB7CA1BDB0BED
:100800000FB6F894DEBF0FBECDBF09942A88398891
:1008100048885F846E847D848C849B84AA84B98498
:10082000C884DF80EE80FD800C811B81AA81B981A4
:10083000CE0FD11D0FB6F894DEBF0FBECDBFED01B8
:100840000895EE0FFF1F0590F491E02D09940F938A
:100850001F93CF93DF938230910510F482E090E0F4
:10086000E091CB01F091CC0130E020E0B0E0A0E0DD
:10087000309799F42115310509F44AC0281B390B2A
:1008800024303105D8F58A819B816115710589F184
:10089000FB0193838283FE0111C04081518102815B
:1008A000138148175907E0F04817590799F4109732
:1008B00061F012960C93129713961C933296CF0107
:1008C000DF91CF911F910F9108950093CB01109369
:1008D000CC01F4CF2115310551F04217530738F000
:1008E000A901DB019A01BD01DF01F801C1CFEF01D0
:1008F000F9CF9093CC018093CB01CDCFFE01E20FD5
:10090000F31F819391932250310939832883D7CFE4
:100910002091C9013091CA01232B41F42091020199
:10092000309103013093CA012093C9012091000145
:10093000309101012115310541F42DB73EB74091A9
:10094000040150910501241B350BE091C901F09180
:10095000CA01E217F307A0F42E1B3F0B2817390733
:1009600078F0AC014E5F5F4F2417350748F04E0F0B
:100970005F1F5093CA014093C901819391939FCF08
:10098000F0E0E0E09CCFCF93DF930097E9F0FC012B
:10099000329713821282A091CB01B091CC01ED016C
:1009A00030E020E01097A1F420813181820F931F65
:1009B0002091C9013091CA012817390709F061C097
:1009C000F093CA01E093C901DF91CF910895EA0144
:1009D000CE17DF07E8F54A815B819E01411551057D
:1009E000B1F7E901FB83EA8349915991C40FD51FFF
:1009F000EC17FD0761F4808191810296840F951FA9
:100A0000E90199838883828193819B838A83F0E0C3
:100A1000E0E012968D919C9113970097B9F52D9176
:100A20003C911197CD010296820F931F2091C9012D
:100A30003091CA012817390739F6309751F51092CD
:100A4000CC011092CB01B093CA01A093C901BCCFD5
:100A5000D383C28340815181840F951FC817D90762
:100A600061F44E5F5F4F88819981480F591F518310
:100A700040838A819B81938382832115310509F00C
:100A8000B0CFF093CC01E093CB019ECFFD01DC0110
:100A9000C0CF13821282D7CFB0E0A0E0E2E5F5E04C
:100AA0000C94EC038C01009751F4CB010E942704B5
:100AB0008C01C801CDB7DEB7E0E10C940804FC015D
:100AC000E60FF71F9C0122503109E217F30708F4E3
:100AD0009DC0D901CD91DC911197C617D70798F029
:100AE000C530D10530F3CE0104978617970708F378
:100AF000C61BD70B2297C193D1936D937C93CF01E3
:100B00000E94C304D6CF5B01AC1ABD0A4C018C0E07
:100B10009D1EA091CB01B091CC01512C412CF12C08
:100B2000E12C109731F58091C9019091CA01881587
:100B3000990509F05CC04616570608F058C0809128
:100B4000000190910101009741F48DB79EB740914B
:100B5000040150910501841B950BE817F90708F073
:100B600055C0F093CA01E093C901F9017183608314
:100B7000A0CF8D919C91119712966C90129713961D
:100B80007C901397A815B90559F56C0142E0C40E85
:100B9000D11CCA14DB0420F1AC014A195B09DA014B
:100BA0001296159780F06282738251834083D90137
:100BB0006D937C93E114F10471F0D7011396FC93CB
:100BC000EE93129776CF22968C0F9D1FF901918399
:100BD0008083F301EFCFF093CC01E093CB0169CF99
:100BE0004816590608F42C017D01D3019ACFCB0198
:100BF0000E9427047C01009749F0AE01B8010E94D1
:100C00000906C8010E94C304870153CF10E000E029
:100C100050CFFB01DC0102C001900D9241505040C9
:100C2000D8F70895FB01DC018D9101908019011026
:100C3000D9F3990B0895FB01DC0101900D9200207E
:080C4000E1F70895F894FFCFDD
:100C48000000CD0180000000000064018400B100B4
:100C5800B1012201C000140170696E6700706F6EE7
:020C6800670023
:00000001FF
